:100000000C9435000C945D000C945D000C945D0024
:100010000C945D000C945D000C945D000C945D00EC
:100020000C945D000C945D000C945D000C945D00DC
:100030000C945D000C945D000C945D000C945D00CC
:100040000C94BE020C945D000C942E030C940803D7
:100050000C945D000C945D000C945D000C945D00AC
:100060000C945D000C945D005E0411241FBECFEF64
:10007000D8E0DEBFCDBF11E0A0E0B1E0E2EEFDE0F0
:1000800002C005900D92AC32B107D9F721E0ACE285
:10009000B1E001C01D92A63DB207E1F710E0C5E353
:1000A000D0E004C02197FE010E94E906C433D107C5
:1000B000C9F70E9460030C94EF060C9400003FB750
:1000C000F8948091350190913601A0913701B0915B
:1000D000380126B5A89B05C02F3F19F00196A11D38
:1000E000B11D3FBFBA2FA92F982F8827BC01CD0182
:1000F000620F711D811D911D42E0660F771F881FE1
:10010000991F4A95D1F70895AF92BF92CF92DF928F
:10011000EF92FF920F931F93CF93DF936C017B01BC
:100120008B01040F151FEB015E01AE18BF08C0174D
:10013000D10759F06991D601ED91FC910190F081C0
:10014000E02DC6010995892B79F7C501DF91CF9183
:100150001F910F91FF90EF90DF90CF90BF90AF90E5
:100160000895FC01538D448D252F30E0842F90E0BD
:10017000821B930B541710F0CF96089501970895A2
:10018000FC01918D828D981761F0A28DAE0FBF2F6B
:10019000B11D5D968C91928D9F5F9F73928F90E0C1
:1001A00008958FEF9FEF0895FC01918D828D981730
:1001B00031F0828DE80FF11D858D90E008958FEF6D
:1001C0009FEF0895FC01918D228D892F90E0805C36
:1001D0009F4F821B91098F739927089589E391E0BE
:1001E0000E94E20021E0892B09F420E0822F08958B
:1001F00080E090E0892B29F00E94EE0081110C94A0
:1002000000000895FC01A48DA80FB92FB11DA35AB9
:10021000BF4F2C91848D90E001968F739927848F26
:10022000A689B7892C93A089B1898C918370806449
:100230008C93938D848D981306C00288F389E02DEA
:1002400080818F7D80830895EF92FF920F931F939B
:10025000CF93DF93EC0181E0888F9B8D8C8D981379
:100260001AC0E889F989808185FF15C09FB7F89485
:10027000EE89FF896083E889F989808183708064D1
:1002800080839FBF81E090E0DF91CF911F910F911C
:10029000FF90EF900895F62E0B8D10E00F5F1F4F2B
:1002A0000F731127E02E8C8D8E110CC00FB607FC3A
:1002B000FACFE889F989808185FFF5CFCE010E94C8
:1002C0000201F1CFEB8DEC0FFD2FF11DE35AFF4F33
:1002D000F0829FB7F8940B8FEA89FB898081806256
:1002E000CFCFCF93DF93EC01888D8823B9F0AA8913
:1002F000BB89E889F9898C9185FD03C0808186FDE1
:100300000DC00FB607FCF7CF8C9185FFF2CF80812F
:1003100085FFEDCFCE010E940201E9CFDF91CF91A1
:100320000895FC0101900020E9F73197AF01481BC7
:10033000590BBC0189E391E00C9484008F929F9249
:10034000AF92BF920F931F93CF93DF93CDB7DEB7DA
:10035000A1970FB6F894DEBF0FBECDBF19A24230F1
:1003600008F44AE08E010F5D1F4F842E912CB12CB2
:10037000A12CA50194010E94C706E62FB901CA016C
:10038000EA30F4F4E05DD801EE938D01232B242BA9
:10039000252B79F790E080E0109719F0CD010E94AD
:1003A0009101A1960FB6F894DEBF0FBECDBFDF91CD
:1003B000CF911F910F91BF90AF909F908F90089514
:1003C000E95CE1CF4F925F926F927F928F929F9202
:1003D000AF92BF92CF92DF92EF92FF920F931F9353
:1003E000CF936B017C01742EAC019B010E94C2066D
:1003F000882399F082E191E0CF911F910F91FF90B6
:10040000EF90DF90CF90BF90AF909F908F907F90B4
:100410006F905F904F900C94910146015701E894C2
:10042000B7F82FEF3FEF4FE75FE7C501B4010E9438
:10043000C20681110DC02FEF3FEF4FE75FE7C50107
:10044000B4010E94F80418161CF486E191E0D4CFA0
:100450002FEF3FEF4FE75FE4C701B6010E94500660
:1004600018161CF48AE191E0C7CF2FEF3FEF4FE75A
:100470005FECC701B6010E94F80487FDF3CF20E0CE
:1004800030E0A901C701B6010E94F80410E000E0C5
:1004900087FF0AC06DE289E391E00E9424018C018C
:1004A000F7FAF094F7F8F094C0E060E070E080E0D4
:1004B0009FE37C1641F020E030E040E251E40E94EE
:1004C000FD04CF5FF6CFA70196010E948C042B019B
:1004D0003C010E946F054B015C014AE00E949E01B5
:1004E0007C01E00EF11ECC23C1F1C501B4010E94D4
:1004F0009E059B01AC01C301B2010E948B044B011C
:100500005C016EE289E391E00E942401E80EF91E8D
:10051000C15018F120E030E040E251E4C501B401DF
:100520000E9455062B013C010E946F054B01B12C26
:10053000A12C4AE0C501B4010E949E01E80EF91EFB
:10054000C501B4010E949E059B01AC01C301B2012B
:100550000E948B044B015C01DBCFC701CF911F913F
:100560000F91FF90EF90DF90CF90BF90AF909F9052
:100570008F907F906F905F904F9008951F920F9291
:100580000FB60F9211242F933F938F939F93AF93A6
:10059000BF938091310190913201A0913301B091CC
:1005A00034013091300123E0230F2D3758F50196A7
:1005B000A11DB11D20933001809331019093320130
:1005C000A0933301B09334018091350190913601AD
:1005D000A0913701B09138010196A11DB11D809302
:1005E000350190933601A0933701B0933801BF9144
:1005F000AF919F918F913F912F910F900FBE0F90D0
:100600001F90189526E8230F0296A11DB11DD2CF89
:100610001F920F920FB60F9211242F933F934F9377
:100620005F936F937F938F939F93AF93BF93EF935A
:10063000FF9389E391E00E940201FF91EF91BF9146
:10064000AF919F918F917F916F915F914F913F916A
:100650002F910F900FBE0F901F9018951F920F9221
:100660000FB60F9211242F938F939F93EF93FF93C5
:10067000E0914901F0914A018081E0914F01F091B0
:10068000500182FD1BC09081809152018F5F8F735A
:1006900020915301821741F0E0915201F0E0E75CB4
:1006A000FE4F958F80935201FF91EF919F918F9113
:1006B0002F910F900FBE0F901F9018958081F4CF4F
:1006C000789484B5826084BD84B5816084BD85B52D
:1006D000826085BD85B5816085BD80916E00816039
:1006E00080936E00109281008091810082608093DF
:1006F00081008091810081608093810080918000E1
:100700008160809380008091B10084608093B1000B
:100710008091B00081608093B00080917A00846005
:1007200080937A0080917A00826080937A00809131
:100730007A00816080937A0080917A00806880934B
:100740007A001092C100E0914901F0914A0182E0E3
:100750008083E0914501F09146011082E0914701CC
:10076000F09148018FEC808310925101E0914D018E
:10077000F0914E0186E08083E0914B01F0914C01B5
:10078000808180618083E0914B01F0914C018081F8
:1007900088608083E0914B01F0914C0180818068FA
:1007A0008083E0914B01F0914C0180818F7D8083AB
:1007B00010E4C0E0D0E010937C0080917A00806467
:1007C00080937A0080917A0086FDFCCF609178005A
:1007D00070917900072E000C880B990B0E94A005E0
:1007E00020E030EC4FE754E40E94FD042CE53FE8A4
:1007F00042EC5DE30E948C042CEB34E743E15CE3C4
:100800000E94FD046B017C0120E932EB41E25CE3D4
:100810000E94550660932C0170932D0180932E0148
:1008200090932F0142E0C701B6010E94E2018EE1E0
:1008300091E00E94910160912C0170912D018091B5
:100840002E0190912F0142E00E94E20183E291E0AB
:100850000E94910188E291E00E9491010E945F0054
:100860004B015C0188EEC82E83E0D82EE12CF12CE0
:100870000E945F00681979098A099B09683E7340E4
:1008800081059105A8F321E0C21AD108E108F10819
:1008900088EE880E83E0981EA11CB11CC114D104FF
:1008A000E104F10429F7209709F485CF0E94EE00B6
:1008B000882309F480CF0E9400007DCFE9E3F1E0B6
:1008C0001382128288EE93E0A0E0B0E084839583E7
:1008D000A683B78384E091E09183808385EC90E0E8
:1008E0009587848784EC90E09787868780EC90E0FA
:1008F000918B808B81EC90E0938B828B82EC90E0EB
:10090000958B848B86EC90E0978B868B118E128E64
:10091000138E148E08955058BB27AA270E94A30453
:100920000C9416060E94080638F00E940F0620F06C
:1009300039F49F3F19F426F40C9405060EF4E09563
:10094000E7FB0C94FF05E92F0E94270658F3BA171E
:10095000620773078407950720F079F4A6F50C94D5
:1009600049060EF4E0950B2EBA2FA02D0B01B9010C
:1009700090010C01CA01A0011124FF27591B99F015
:10098000593F50F4503E68F11A16F040A22F232F21
:10099000342F4427585FF3CF469537952795A79571
:1009A000F0405395C9F77EF41F16BA0B620B730B18
:1009B000840BBAF09150A1F0FF0FBB1F661F771F89
:1009C000881FC2F70EC0BA0F621F731F841F48F43E
:1009D000879577956795B795F7959E3F08F0B0CFC7
:1009E0009395880F08F09927EE0F979587950895AE
:1009F0000E94DB0508F481E008950E9411050C9423
:100A000016060E940F0658F00E94080640F029F4CE
:100A10005F3F29F00C94FF0551110C944A060C9489
:100A200005060E94270668F39923B1F3552391F335
:100A3000951B550BBB27AA2762177307840738F04D
:100A40009F5F5F4F220F331F441FAA1FA9F335D0AA
:100A50000E2E3AF0E0E832D091505040E695001C5E
:100A6000CAF72BD0FE2F29D0660F771F881FBB1F18
:100A7000261737074807AB07B0E809F0BB0B802DF6
:100A8000BF01FF2793585F4F3AF09E3F510578F022
:100A90000C94FF050C944A065F3FE4F3983ED4F3B0
:100AA000869577956795B795F7959F5FC9F7880FF6
:100AB000911D9695879597F90895E1E0660F771F48
:100AC000881FBB1F621773078407BA0720F0621BD9
:100AD000730B840BBA0BEE1F88F7E09508950E9404
:100AE0002F0688F09F5798F0B92F9927B751B0F08B
:100AF000E1F0660F771F881F991F1AF0BA95C9F7A2
:100B000014C0B13091F00E944906B1E008950C94F0
:100B10004906672F782F8827B85F39F0B93FCCF3A3
:100B2000869577956795B395D9F73EF4909580951E
:100B3000709561957F4F8F4F9F4F0895E89409C03E
:100B400097FB3EF490958095709561957F4F8F4F00
:100B50009F4F9923A9F0F92F96E9BB279395F69516
:100B6000879577956795B795F111F8CFFAF4BB0F94
:100B700011F460FF1BC06F5F7F4F8F4F9F4F16C0F8
:100B8000882311F096E911C0772321F09EE8872F82
:100B9000762F05C0662371F096E8862F70E060E03E
:100BA0002AF09A95660F771F881FDAF7880F9695B7
:100BB000879597F90895990F0008550FAA0BE0E85B
:100BC000FEEF16161706E807F907C0F0121613060F
:100BD000E407F50798F0621B730B840B950B39F44F
:100BE0000A2661F0232B242B252B21F408950A26B5
:100BF00009F4A140A6958FEF811D811D089597F9F5
:100C00009F6780E870E060E008959FEF80EC0895B2
:100C100000240A94161617061806090608950024DB
:100C20000A9412161306140605060895092E039455
:100C3000000C11F4882352F0BB0F40F4BF2B11F4C9
:100C400060FF04C06F5F7F4F8F4F9F4F089557FD28
:100C50009058440F551F59F05F3F71F04795880F2A
:100C600097FB991F61F09F3F79F0879508951216C1
:100C700013061406551FF2CF4695F1DF08C016166D
:100C800017061806991FF1CF86957105610508941E
:100C90000895E894BB2766277727CB0197F9089535
:100CA0000E94DB0508F48FEF08950E9468060C94FB
:100CB00016060E94080638F00E940F0620F09523C1
:100CC00011F00C94FF050C94050611240C944A06AF
:100CD0000E94270670F3959FC1F3950F50E0551FB2
:100CE000629FF001729FBB27F00DB11D639FAA2781
:100CF000F00DB11DAA1F649F6627B00DA11D661FD0
:100D0000829F2227B00DA11D621F739FB00DA11DF0
:100D1000621F839FA00D611D221F749F3327A00DAA
:100D2000611D231F849F600D211D822F762F6A2F46
:100D300011249F5750409AF0F1F088234AF0EE0FAB
:100D4000FF1FBB1F661F771F881F91505040A9F7D8
:100D50009E3F510580F00C94FF050C944A065F3FBE
:100D6000E4F3983ED4F3869577956795B795F79514
:100D7000E7959F5FC1F7FE2B880F911D969587958C
:100D800097F908950E94DB05880B990B0895A1E25D
:100D90001A2EAA1BBB1BFD010DC0AA1FBB1FEE1FF5
:100DA000FF1FA217B307E407F50720F0A21BB30B40
:100DB000E40BF50B661F771F881F991F1A9469F7BC
:100DC00060957095809590959B01AC01BD01CF0118
:100DD0000895EE0FFF1F0590F491E02D0994F8940B
:020DE000FFCF43
:100DE2000000000024018400B1007101E200C00093
:100DF200D4006E616E00696E66006F7666006B509D
:0C0E020061200041746D20000D0A00000A
:00000001FF
